{
  "_format": "hh3-artifact-1",
  "contractName": "WTC_NFT",
  "sourceName": "contracts/WTCStakingEcosystem.sol",
  "abi": [
    {
      "inputs": [
        {
          "internalType": "uint256",
          "name": "initialMintPrice",
          "type": "uint256"
        }
      ],
      "stateMutability": "nonpayable",
      "type": "constructor"
    },
    {
      "inputs": [
        {
          "internalType": "address",
          "name": "sender",
          "type": "address"
        },
        {
          "internalType": "uint256",
          "name": "tokenId",
          "type": "uint256"
        },
        {
          "internalType": "address",
          "name": "owner",
          "type": "address"
        }
      ],
      "name": "ERC721IncorrectOwner",
      "type": "error"
    },
    {
      "inputs": [
        {
          "internalType": "address",
          "name": "operator",
          "type": "address"
        },
        {
          "internalType": "uint256",
          "name": "tokenId",
          "type": "uint256"
        }
      ],
      "name": "ERC721InsufficientApproval",
      "type": "error"
    },
    {
      "inputs": [
        {
          "internalType": "address",
          "name": "approver",
          "type": "address"
        }
      ],
      "name": "ERC721InvalidApprover",
      "type": "error"
    },
    {
      "inputs": [
        {
          "internalType": "address",
          "name": "operator",
          "type": "address"
        }
      ],
      "name": "ERC721InvalidOperator",
      "type": "error"
    },
    {
      "inputs": [
        {
          "internalType": "address",
          "name": "owner",
          "type": "address"
        }
      ],
      "name": "ERC721InvalidOwner",
      "type": "error"
    },
    {
      "inputs": [
        {
          "internalType": "address",
          "name": "receiver",
          "type": "address"
        }
      ],
      "name": "ERC721InvalidReceiver",
      "type": "error"
    },
    {
      "inputs": [
        {
          "internalType": "address",
          "name": "sender",
          "type": "address"
        }
      ],
      "name": "ERC721InvalidSender",
      "type": "error"
    },
    {
      "inputs": [
        {
          "internalType": "uint256",
          "name": "tokenId",
          "type": "uint256"
        }
      ],
      "name": "ERC721NonexistentToken",
      "type": "error"
    },
    {
      "inputs": [
        {
          "internalType": "address",
          "name": "owner",
          "type": "address"
        }
      ],
      "name": "OwnableInvalidOwner",
      "type": "error"
    },
    {
      "inputs": [
        {
          "internalType": "address",
          "name": "account",
          "type": "address"
        }
      ],
      "name": "OwnableUnauthorizedAccount",
      "type": "error"
    },
    {
      "anonymous": false,
      "inputs": [
        {
          "indexed": true,
          "internalType": "address",
          "name": "owner",
          "type": "address"
        },
        {
          "indexed": true,
          "internalType": "address",
          "name": "approved",
          "type": "address"
        },
        {
          "indexed": true,
          "internalType": "uint256",
          "name": "tokenId",
          "type": "uint256"
        }
      ],
      "name": "Approval",
      "type": "event"
    },
    {
      "anonymous": false,
      "inputs": [
        {
          "indexed": true,
          "internalType": "address",
          "name": "owner",
          "type": "address"
        },
        {
          "indexed": true,
          "internalType": "address",
          "name": "operator",
          "type": "address"
        },
        {
          "indexed": false,
          "internalType": "bool",
          "name": "approved",
          "type": "bool"
        }
      ],
      "name": "ApprovalForAll",
      "type": "event"
    },
    {
      "anonymous": false,
      "inputs": [
        {
          "indexed": false,
          "internalType": "uint256",
          "name": "newMintPrice",
          "type": "uint256"
        }
      ],
      "name": "MintPriceUpdated",
      "type": "event"
    },
    {
      "anonymous": false,
      "inputs": [
        {
          "indexed": true,
          "internalType": "address",
          "name": "previousOwner",
          "type": "address"
        },
        {
          "indexed": true,
          "internalType": "address",
          "name": "newOwner",
          "type": "address"
        }
      ],
      "name": "OwnershipTransferred",
      "type": "event"
    },
    {
      "anonymous": false,
      "inputs": [
        {
          "indexed": true,
          "internalType": "address",
          "name": "from",
          "type": "address"
        },
        {
          "indexed": true,
          "internalType": "address",
          "name": "to",
          "type": "address"
        },
        {
          "indexed": true,
          "internalType": "uint256",
          "name": "tokenId",
          "type": "uint256"
        }
      ],
      "name": "Transfer",
      "type": "event"
    },
    {
      "inputs": [],
      "name": "MAX_SUPPLY",
      "outputs": [
        {
          "internalType": "uint256",
          "name": "",
          "type": "uint256"
        }
      ],
      "stateMutability": "view",
      "type": "function"
    },
    {
      "inputs": [
        {
          "internalType": "address",
          "name": "to",
          "type": "address"
        },
        {
          "internalType": "uint256",
          "name": "tokenId",
          "type": "uint256"
        }
      ],
      "name": "approve",
      "outputs": [],
      "stateMutability": "nonpayable",
      "type": "function"
    },
    {
      "inputs": [
        {
          "internalType": "address",
          "name": "owner",
          "type": "address"
        }
      ],
      "name": "balanceOf",
      "outputs": [
        {
          "internalType": "uint256",
          "name": "",
          "type": "uint256"
        }
      ],
      "stateMutability": "view",
      "type": "function"
    },
    {
      "inputs": [
        {
          "internalType": "uint256",
          "name": "tokenId",
          "type": "uint256"
        }
      ],
      "name": "getApproved",
      "outputs": [
        {
          "internalType": "address",
          "name": "",
          "type": "address"
        }
      ],
      "stateMutability": "view",
      "type": "function"
    },
    {
      "inputs": [
        {
          "internalType": "address",
          "name": "owner",
          "type": "address"
        },
        {
          "internalType": "address",
          "name": "operator",
          "type": "address"
        }
      ],
      "name": "isApprovedForAll",
      "outputs": [
        {
          "internalType": "bool",
          "name": "",
          "type": "bool"
        }
      ],
      "stateMutability": "view",
      "type": "function"
    },
    {
      "inputs": [
        {
          "internalType": "uint256",
          "name": "quantity",
          "type": "uint256"
        }
      ],
      "name": "mint",
      "outputs": [],
      "stateMutability": "payable",
      "type": "function"
    },
    {
      "inputs": [],
      "name": "mintPrice",
      "outputs": [
        {
          "internalType": "uint256",
          "name": "",
          "type": "uint256"
        }
      ],
      "stateMutability": "view",
      "type": "function"
    },
    {
      "inputs": [],
      "name": "name",
      "outputs": [
        {
          "internalType": "string",
          "name": "",
          "type": "string"
        }
      ],
      "stateMutability": "view",
      "type": "function"
    },
    {
      "inputs": [],
      "name": "owner",
      "outputs": [
        {
          "internalType": "address",
          "name": "",
          "type": "address"
        }
      ],
      "stateMutability": "view",
      "type": "function"
    },
    {
      "inputs": [
        {
          "internalType": "uint256",
          "name": "tokenId",
          "type": "uint256"
        }
      ],
      "name": "ownerOf",
      "outputs": [
        {
          "internalType": "address",
          "name": "",
          "type": "address"
        }
      ],
      "stateMutability": "view",
      "type": "function"
    },
    {
      "inputs": [],
      "name": "renounceOwnership",
      "outputs": [],
      "stateMutability": "nonpayable",
      "type": "function"
    },
    {
      "inputs": [
        {
          "internalType": "address",
          "name": "from",
          "type": "address"
        },
        {
          "internalType": "address",
          "name": "to",
          "type": "address"
        },
        {
          "internalType": "uint256",
          "name": "tokenId",
          "type": "uint256"
        }
      ],
      "name": "safeTransferFrom",
      "outputs": [],
      "stateMutability": "nonpayable",
      "type": "function"
    },
    {
      "inputs": [
        {
          "internalType": "address",
          "name": "from",
          "type": "address"
        },
        {
          "internalType": "address",
          "name": "to",
          "type": "address"
        },
        {
          "internalType": "uint256",
          "name": "tokenId",
          "type": "uint256"
        },
        {
          "internalType": "bytes",
          "name": "data",
          "type": "bytes"
        }
      ],
      "name": "safeTransferFrom",
      "outputs": [],
      "stateMutability": "nonpayable",
      "type": "function"
    },
    {
      "inputs": [
        {
          "internalType": "address",
          "name": "operator",
          "type": "address"
        },
        {
          "internalType": "bool",
          "name": "approved",
          "type": "bool"
        }
      ],
      "name": "setApprovalForAll",
      "outputs": [],
      "stateMutability": "nonpayable",
      "type": "function"
    },
    {
      "inputs": [
        {
          "internalType": "uint256",
          "name": "newMintPrice",
          "type": "uint256"
        }
      ],
      "name": "setMintPrice",
      "outputs": [],
      "stateMutability": "nonpayable",
      "type": "function"
    },
    {
      "inputs": [
        {
          "internalType": "bytes4",
          "name": "interfaceId",
          "type": "bytes4"
        }
      ],
      "name": "supportsInterface",
      "outputs": [
        {
          "internalType": "bool",
          "name": "",
          "type": "bool"
        }
      ],
      "stateMutability": "view",
      "type": "function"
    },
    {
      "inputs": [],
      "name": "symbol",
      "outputs": [
        {
          "internalType": "string",
          "name": "",
          "type": "string"
        }
      ],
      "stateMutability": "view",
      "type": "function"
    },
    {
      "inputs": [
        {
          "internalType": "uint256",
          "name": "tokenId",
          "type": "uint256"
        }
      ],
      "name": "tokenURI",
      "outputs": [
        {
          "internalType": "string",
          "name": "",
          "type": "string"
        }
      ],
      "stateMutability": "view",
      "type": "function"
    },
    {
      "inputs": [],
      "name": "totalSupply",
      "outputs": [
        {
          "internalType": "uint256",
          "name": "",
          "type": "uint256"
        }
      ],
      "stateMutability": "view",
      "type": "function"
    },
    {
      "inputs": [
        {
          "internalType": "address",
          "name": "from",
          "type": "address"
        },
        {
          "internalType": "address",
          "name": "to",
          "type": "address"
        },
        {
          "internalType": "uint256",
          "name": "tokenId",
          "type": "uint256"
        }
      ],
      "name": "transferFrom",
      "outputs": [],
      "stateMutability": "nonpayable",
      "type": "function"
    },
    {
      "inputs": [
        {
          "internalType": "address",
          "name": "newOwner",
          "type": "address"
        }
      ],
      "name": "transferOwnership",
      "outputs": [],
      "stateMutability": "nonpayable",
      "type": "function"
    }
  ],
  "bytecode": "0x60806040526001600855348015610014575f5ffd5b5060405161163f38038061163f83398101604081905261003391610121565b336040518060400160405280600781526020016615d510c813919560ca1b8152506040518060400160405280600681526020016515d510d3919560d21b815250815f908161008191906101d0565b50600161008e82826101d0565b5050506001600160a01b0381166100be57604051631e4fbdf760e01b81525f600482015260240160405180910390fd5b6100c7816100d0565b5060075561028a565b600680546001600160a01b038381166001600160a01b0319831681179093556040519116919082907f8be0079c531659141344cd1fd0a4f28419497f9722a3daafe3b4186f6b6457e0905f90a35050565b5f60208284031215610131575f5ffd5b5051919050565b634e487b7160e01b5f52604160045260245ffd5b600181811c9082168061016057607f821691505b60208210810361017e57634e487b7160e01b5f52602260045260245ffd5b50919050565b601f8211156101cb57805f5260205f20601f840160051c810160208510156101a95750805b601f840160051c820191505b818110156101c8575f81556001016101b5565b50505b505050565b81516001600160401b038111156101e9576101e9610138565b6101fd816101f7845461014c565b84610184565b6020601f82116001811461022f575f83156102185750848201515b5f19600385901b1c1916600184901b1784556101c8565b5f84815260208120601f198516915b8281101561025e578785015182556020948501946001909201910161023e565b508482101561027b57868401515f19600387901b60f8161c191681555b50505050600190811b01905550565b6113a8806102975f395ff3fe608060405260043610610126575f3560e01c806370a08231116100a8578063a22cb4651161006d578063a22cb465146102f7578063b88d4fde14610316578063c87b56dd14610335578063e985e9c514610354578063f2fde38b14610373578063f4a0a52814610392575f5ffd5b806370a0823114610280578063715018a61461029f5780638da5cb5b146102b357806395d89b41146102d0578063a0712d68146102e4575f5ffd5b806323b872dd116100ee57806323b872dd146101f957806332cb6b0c1461021857806342842e0e1461022d5780636352211e1461024c5780636817c76c1461026b575f5ffd5b806301ffc9a71461012a57806306fdde031461015e578063081812fc1461017f578063095ea7b3146101b657806318160ddd146101d7575b5f5ffd5b348015610135575f5ffd5b50610149610144366004610fec565b6103b1565b60405190151581526020015b60405180910390f35b348015610169575f5ffd5b50610172610402565b6040516101559190611035565b34801561018a575f5ffd5b5061019e610199366004611047565b610491565b6040516001600160a01b039091168152602001610155565b3480156101c1575f5ffd5b506101d56101d0366004611079565b6104b8565b005b3480156101e2575f5ffd5b506101eb6104c7565b604051908152602001610155565b348015610204575f5ffd5b506101d56102133660046110a1565b6104dc565b348015610223575f5ffd5b506101eb61271081565b348015610238575f5ffd5b506101d56102473660046110a1565b61056a565b348015610257575f5ffd5b5061019e610266366004611047565b610589565b348015610276575f5ffd5b506101eb60075481565b34801561028b575f5ffd5b506101eb61029a3660046110db565b610593565b3480156102aa575f5ffd5b506101d56105d8565b3480156102be575f5ffd5b506006546001600160a01b031661019e565b3480156102db575f5ffd5b506101726105eb565b6101d56102f2366004611047565b6105fa565b348015610302575f5ffd5b506101d56103113660046110f4565b61072e565b348015610321575f5ffd5b506101d5610330366004611141565b610739565b348015610340575f5ffd5b5061017261034f366004611047565b610751565b34801561035f575f5ffd5b5061014961036e36600461121e565b6107c2565b34801561037e575f5ffd5b506101d561038d3660046110db565b6107ef565b34801561039d575f5ffd5b506101d56103ac366004611047565b61082c565b5f6001600160e01b031982166380ac58cd60e01b14806103e157506001600160e01b03198216635b5e139f60e01b145b806103fc57506301ffc9a760e01b6001600160e01b03198316145b92915050565b60605f80546104109061124f565b80601f016020809104026020016040519081016040528092919081815260200182805461043c9061124f565b80156104875780601f1061045e57610100808354040283529160200191610487565b820191905f5260205f20905b81548152906001019060200180831161046a57829003601f168201915b5050505050905090565b5f61049b8261086f565b505f828152600460205260409020546001600160a01b03166103fc565b6104c38282336108a7565b5050565b5f60016008546104d7919061129b565b905090565b6001600160a01b03821661050a57604051633250574960e11b81525f60048201526024015b60405180910390fd5b5f6105168383336108b4565b9050836001600160a01b0316816001600160a01b031614610564576040516364283d7b60e01b81526001600160a01b0380861660048301526024820184905282166044820152606401610501565b50505050565b61058483838360405180602001604052805f815250610739565b505050565b5f6103fc8261086f565b5f6001600160a01b0382166105bd576040516322718ad960e21b81525f6004820152602401610501565b506001600160a01b03165f9081526003602052604090205490565b6105e06109a6565b6105e95f6109d3565b565b6060600180546104109061124f565b5f81116106405760405162461bcd60e51b815260206004820152601460248201527305175616e74697479206d757374206265203e20360641b6044820152606401610501565b61271060018260085461065391906112ae565b61065d919061129b565b11156106a05760405162461bcd60e51b815260206004820152601260248201527113585e081cdd5c1c1b1e481c995858da195960721b6044820152606401610501565b806007546106ae91906112c1565b34146106fc5760405162461bcd60e51b815260206004820152601860248201527f496e636f7272656374204554482076616c75652073656e7400000000000000006044820152606401610501565b5f5b818110156104c35761071233600854610a24565b60088054905f610721836112d8565b90915550506001016106fe565b6104c3338383610a3d565b6107448484846104dc565b6105643385858585610b04565b606061075c8261086f565b505f61077260408051602081019091525f815290565b90505f8151116107905760405180602001604052805f8152506107bb565b8061079a84610c2c565b6040516020016107ab929190611307565b6040516020818303038152906040525b9392505050565b6001600160a01b039182165f90815260056020908152604080832093909416825291909152205460ff1690565b6107f76109a6565b6001600160a01b03811661082057604051631e4fbdf760e01b81525f6004820152602401610501565b610829816109d3565b50565b6108346109a6565b60078190556040518181527f525b762709cc2a983aec5ccdfd807a061f993c91090b5bcd7da92ca254976aaa9060200160405180910390a150565b5f818152600260205260408120546001600160a01b0316806103fc57604051637e27328960e01b815260048101849052602401610501565b6105848383836001610cbc565b5f828152600260205260408120546001600160a01b03908116908316156108e0576108e0818486610dc0565b6001600160a01b0381161561091a576108fb5f855f5f610cbc565b6001600160a01b0381165f90815260036020526040902080545f190190555b6001600160a01b03851615610948576001600160a01b0385165f908152600360205260409020805460010190555b5f8481526002602052604080822080546001600160a01b0319166001600160a01b0389811691821790925591518793918516917fddf252ad1be2c89b69c2b068fc378daa952ba7f163c4a11628f55a4df523b3ef91a4949350505050565b6006546001600160a01b031633146105e95760405163118cdaa760e01b8152336004820152602401610501565b600680546001600160a01b038381166001600160a01b0319831681179093556040519116919082907f8be0079c531659141344cd1fd0a4f28419497f9722a3daafe3b4186f6b6457e0905f90a35050565b6104c3828260405180602001604052805f815250610e24565b6001600160a01b038316610a665760405163a9fbf51f60e01b81525f6004820152602401610501565b6001600160a01b038216610a9857604051630b61174360e31b81526001600160a01b0383166004820152602401610501565b6001600160a01b038381165f81815260056020908152604080832094871680845294825291829020805460ff191686151590811790915591519182527f17307eab39ab6107e8899845ad3d59bd9653f200f220920489ca2b5937696c31910160405180910390a3505050565b6001600160a01b0383163b15610c2557604051630a85bd0160e11b81526001600160a01b0384169063150b7a0290610b4690889088908790879060040161131b565b6020604051808303815f875af1925050508015610b80575060408051601f3d908101601f19168201909252610b7d91810190611357565b60015b610be7573d808015610bad576040519150601f19603f3d011682016040523d82523d5f602084013e610bb2565b606091505b5080515f03610bdf57604051633250574960e11b81526001600160a01b0385166004820152602401610501565b805160208201fd5b6001600160e01b03198116630a85bd0160e11b14610c2357604051633250574960e11b81526001600160a01b0385166004820152602401610501565b505b5050505050565b60605f610c3883610e3b565b60010190505f8167ffffffffffffffff811115610c5757610c5761112d565b6040519080825280601f01601f191660200182016040528015610c81576020820181803683370190505b5090508181016020015b5f19016f181899199a1a9b1b9c1cb0b131b232b360811b600a86061a8153600a8504945084610c8b57509392505050565b8080610cd057506001600160a01b03821615155b15610d91575f610cdf8461086f565b90506001600160a01b03831615801590610d0b5750826001600160a01b0316816001600160a01b031614155b8015610d1e5750610d1c81846107c2565b155b15610d475760405163a9fbf51f60e01b81526001600160a01b0384166004820152602401610501565b8115610d8f5783856001600160a01b0316826001600160a01b03167f8c5be1e5ebec7d5bd14f71427d1e84f3dd0314c0f7b2291e5b200ac8c7c3b92560405160405180910390a45b505b50505f90815260046020526040902080546001600160a01b0319166001600160a01b0392909216919091179055565b610dcb838383610f12565b610584576001600160a01b038316610df957604051637e27328960e01b815260048101829052602401610501565b60405163177e802f60e01b81526001600160a01b038316600482015260248101829052604401610501565b610e2e8383610f76565b610584335f858585610b04565b5f8072184f03e93ff9f4daa797ed6e38ed64bf6a1f0160401b8310610e795772184f03e93ff9f4daa797ed6e38ed64bf6a1f0160401b830492506040015b6d04ee2d6d415b85acef81000000008310610ea5576d04ee2d6d415b85acef8100000000830492506020015b662386f26fc100008310610ec357662386f26fc10000830492506010015b6305f5e1008310610edb576305f5e100830492506008015b6127108310610eef57612710830492506004015b60648310610f01576064830492506002015b600a83106103fc5760010192915050565b5f6001600160a01b03831615801590610f6e5750826001600160a01b0316846001600160a01b03161480610f4b5750610f4b84846107c2565b80610f6e57505f828152600460205260409020546001600160a01b038481169116145b949350505050565b6001600160a01b038216610f9f57604051633250574960e11b81525f6004820152602401610501565b5f610fab83835f6108b4565b90506001600160a01b03811615610584576040516339e3563760e11b81525f6004820152602401610501565b6001600160e01b031981168114610829575f5ffd5b5f60208284031215610ffc575f5ffd5b81356107bb81610fd7565b5f81518084528060208401602086015e5f602082860101526020601f19601f83011685010191505092915050565b602081525f6107bb6020830184611007565b5f60208284031215611057575f5ffd5b5035919050565b80356001600160a01b0381168114611074575f5ffd5b919050565b5f5f6040838503121561108a575f5ffd5b6110938361105e565b946020939093013593505050565b5f5f5f606084860312156110b3575f5ffd5b6110bc8461105e565b92506110ca6020850161105e565b929592945050506040919091013590565b5f602082840312156110eb575f5ffd5b6107bb8261105e565b5f5f60408385031215611105575f5ffd5b61110e8361105e565b915060208301358015158114611122575f5ffd5b809150509250929050565b634e487b7160e01b5f52604160045260245ffd5b5f5f5f5f60808587031215611154575f5ffd5b61115d8561105e565b935061116b6020860161105e565b925060408501359150606085013567ffffffffffffffff81111561118d575f5ffd5b8501601f8101871361119d575f5ffd5b803567ffffffffffffffff8111156111b7576111b761112d565b604051601f8201601f19908116603f0116810167ffffffffffffffff811182821017156111e6576111e661112d565b6040528181528282016020018910156111fd575f5ffd5b816020840160208301375f6020838301015280935050505092959194509250565b5f5f6040838503121561122f575f5ffd5b6112388361105e565b91506112466020840161105e565b90509250929050565b600181811c9082168061126357607f821691505b60208210810361128157634e487b7160e01b5f52602260045260245ffd5b50919050565b634e487b7160e01b5f52601160045260245ffd5b818103818111156103fc576103fc611287565b808201808211156103fc576103fc611287565b80820281158282048414176103fc576103fc611287565b5f600182016112e9576112e9611287565b5060010190565b5f81518060208401855e5f93019283525090919050565b5f610f6e61131583866112f0565b846112f0565b6001600160a01b03858116825284166020820152604081018390526080606082018190525f9061134d90830184611007565b9695505050505050565b5f60208284031215611367575f5ffd5b81516107bb81610fd756fea2646970667358221220704a047e48da89bdac1411c30ff660f51d580d3407ea3b9a80b8d0df2065b67264736f6c634300081c0033",
  "linkReferences": {},
  "deployedLinkReferences": {},
  "immutableReferences": {},
  "inputSourceName": "project/contracts/WTCStakingEcosystem.sol",
  "buildInfoId": "solc-0_8_28-54491de9ebbf325bfa187e367469b88addaa4347"
}